{
  "contractName": "DaiPool",
  "abi": [
    {
      "inputs": [
        {
          "internalType": "address",
          "name": "_owner",
          "type": "address"
        },
        {
          "internalType": "address",
          "name": "_rewardsDistribution",
          "type": "address"
        },
        {
          "internalType": "address",
          "name": "_stakingToken",
          "type": "address"
        },
        {
          "internalType": "address",
          "name": "_rewardsToken",
          "type": "address"
        }
      ],
      "stateMutability": "nonpayable",
      "type": "constructor"
    },
    {
      "anonymous": false,
      "inputs": [
        {
          "indexed": false,
          "internalType": "uint256",
          "name": "burnedTokens",
          "type": "uint256"
        }
      ],
      "name": "FarmingFinished",
      "type": "event"
    },
    {
      "anonymous": false,
      "inputs": [
        {
          "indexed": false,
          "internalType": "address",
          "name": "oldOwner",
          "type": "address"
        },
        {
          "indexed": false,
          "internalType": "address",
          "name": "newOwner",
          "type": "address"
        }
      ],
      "name": "OwnerChanged",
      "type": "event"
    },
    {
      "anonymous": false,
      "inputs": [
        {
          "indexed": false,
          "internalType": "address",
          "name": "newOwner",
          "type": "address"
        }
      ],
      "name": "OwnerNominated",
      "type": "event"
    },
    {
      "anonymous": false,
      "inputs": [
        {
          "indexed": false,
          "internalType": "address",
          "name": "account",
          "type": "address"
        }
      ],
      "name": "Paused",
      "type": "event"
    },
    {
      "anonymous": false,
      "inputs": [
        {
          "indexed": false,
          "internalType": "uint256",
          "name": "reward",
          "type": "uint256"
        }
      ],
      "name": "RewardAdded",
      "type": "event"
    },
    {
      "anonymous": false,
      "inputs": [
        {
          "indexed": true,
          "internalType": "address",
          "name": "user",
          "type": "address"
        },
        {
          "indexed": false,
          "internalType": "uint256",
          "name": "reward",
          "type": "uint256"
        }
      ],
      "name": "RewardPaid",
      "type": "event"
    },
    {
      "anonymous": false,
      "inputs": [
        {
          "indexed": false,
          "internalType": "uint256",
          "name": "newDuration",
          "type": "uint256"
        }
      ],
      "name": "RewardsDurationUpdated",
      "type": "event"
    },
    {
      "anonymous": false,
      "inputs": [
        {
          "indexed": true,
          "internalType": "address",
          "name": "user",
          "type": "address"
        },
        {
          "indexed": false,
          "internalType": "uint256",
          "name": "amount",
          "type": "uint256"
        }
      ],
      "name": "Staked",
      "type": "event"
    },
    {
      "anonymous": false,
      "inputs": [
        {
          "indexed": false,
          "internalType": "address",
          "name": "account",
          "type": "address"
        }
      ],
      "name": "Unpaused",
      "type": "event"
    },
    {
      "anonymous": false,
      "inputs": [
        {
          "indexed": true,
          "internalType": "address",
          "name": "user",
          "type": "address"
        },
        {
          "indexed": false,
          "internalType": "uint256",
          "name": "amount",
          "type": "uint256"
        }
      ],
      "name": "Withdrawn",
      "type": "event"
    },
    {
      "inputs": [],
      "name": "acceptOwnership",
      "outputs": [],
      "stateMutability": "nonpayable",
      "type": "function"
    },
    {
      "inputs": [],
      "name": "lastUpdateTime",
      "outputs": [
        {
          "internalType": "uint256",
          "name": "",
          "type": "uint256"
        }
      ],
      "stateMutability": "view",
      "type": "function"
    },
    {
      "inputs": [
        {
          "internalType": "address",
          "name": "_owner",
          "type": "address"
        }
      ],
      "name": "nominateNewOwner",
      "outputs": [],
      "stateMutability": "nonpayable",
      "type": "function"
    },
    {
      "inputs": [],
      "name": "nominatedOwner",
      "outputs": [
        {
          "internalType": "address",
          "name": "",
          "type": "address"
        }
      ],
      "stateMutability": "view",
      "type": "function"
    },
    {
      "inputs": [],
      "name": "owner",
      "outputs": [
        {
          "internalType": "address",
          "name": "",
          "type": "address"
        }
      ],
      "stateMutability": "view",
      "type": "function"
    },
    {
      "inputs": [],
      "name": "paused",
      "outputs": [
        {
          "internalType": "bool",
          "name": "",
          "type": "bool"
        }
      ],
      "stateMutability": "view",
      "type": "function"
    },
    {
      "inputs": [],
      "name": "periodFinish",
      "outputs": [
        {
          "internalType": "uint256",
          "name": "",
          "type": "uint256"
        }
      ],
      "stateMutability": "view",
      "type": "function"
    },
    {
      "inputs": [],
      "name": "rewardPerTokenStored",
      "outputs": [
        {
          "internalType": "uint256",
          "name": "",
          "type": "uint256"
        }
      ],
      "stateMutability": "view",
      "type": "function"
    },
    {
      "inputs": [],
      "name": "rewardRate",
      "outputs": [
        {
          "internalType": "uint256",
          "name": "",
          "type": "uint256"
        }
      ],
      "stateMutability": "view",
      "type": "function"
    },
    {
      "inputs": [
        {
          "internalType": "address",
          "name": "",
          "type": "address"
        }
      ],
      "name": "rewards",
      "outputs": [
        {
          "internalType": "uint256",
          "name": "",
          "type": "uint256"
        }
      ],
      "stateMutability": "view",
      "type": "function"
    },
    {
      "inputs": [],
      "name": "rewardsDistribution",
      "outputs": [
        {
          "internalType": "address",
          "name": "",
          "type": "address"
        }
      ],
      "stateMutability": "view",
      "type": "function"
    },
    {
      "inputs": [],
      "name": "rewardsDuration",
      "outputs": [
        {
          "internalType": "uint256",
          "name": "",
          "type": "uint256"
        }
      ],
      "stateMutability": "view",
      "type": "function"
    },
    {
      "inputs": [],
      "name": "rewardsToken",
      "outputs": [
        {
          "internalType": "contract IERC20Burnable",
          "name": "",
          "type": "address"
        }
      ],
      "stateMutability": "view",
      "type": "function"
    },
    {
      "inputs": [
        {
          "internalType": "address",
          "name": "_rewardsDistribution",
          "type": "address"
        }
      ],
      "name": "setRewardsDistribution",
      "outputs": [],
      "stateMutability": "nonpayable",
      "type": "function"
    },
    {
      "inputs": [],
      "name": "stakingToken",
      "outputs": [
        {
          "internalType": "contract IERC20",
          "name": "",
          "type": "address"
        }
      ],
      "stateMutability": "view",
      "type": "function"
    },
    {
      "inputs": [],
      "name": "stopped",
      "outputs": [
        {
          "internalType": "bool",
          "name": "",
          "type": "bool"
        }
      ],
      "stateMutability": "view",
      "type": "function"
    },
    {
      "inputs": [
        {
          "internalType": "address",
          "name": "",
          "type": "address"
        }
      ],
      "name": "userRewardPerTokenPaid",
      "outputs": [
        {
          "internalType": "uint256",
          "name": "",
          "type": "uint256"
        }
      ],
      "stateMutability": "view",
      "type": "function"
    },
    {
      "inputs": [],
      "name": "totalSupply",
      "outputs": [
        {
          "internalType": "uint256",
          "name": "",
          "type": "uint256"
        }
      ],
      "stateMutability": "view",
      "type": "function"
    },
    {
      "inputs": [
        {
          "internalType": "address",
          "name": "account",
          "type": "address"
        }
      ],
      "name": "balanceOf",
      "outputs": [
        {
          "internalType": "uint256",
          "name": "",
          "type": "uint256"
        }
      ],
      "stateMutability": "view",
      "type": "function"
    },
    {
      "inputs": [],
      "name": "lastTimeRewardApplicable",
      "outputs": [
        {
          "internalType": "uint256",
          "name": "",
          "type": "uint256"
        }
      ],
      "stateMutability": "view",
      "type": "function"
    },
    {
      "inputs": [],
      "name": "rewardPerToken",
      "outputs": [
        {
          "internalType": "uint256",
          "name": "",
          "type": "uint256"
        }
      ],
      "stateMutability": "view",
      "type": "function"
    },
    {
      "inputs": [
        {
          "internalType": "address",
          "name": "account",
          "type": "address"
        }
      ],
      "name": "earned",
      "outputs": [
        {
          "internalType": "uint256",
          "name": "",
          "type": "uint256"
        }
      ],
      "stateMutability": "view",
      "type": "function"
    },
    {
      "inputs": [],
      "name": "getRewardForDuration",
      "outputs": [
        {
          "internalType": "uint256",
          "name": "",
          "type": "uint256"
        }
      ],
      "stateMutability": "view",
      "type": "function"
    },
    {
      "inputs": [
        {
          "internalType": "uint256",
          "name": "amount",
          "type": "uint256"
        }
      ],
      "name": "stake",
      "outputs": [],
      "stateMutability": "nonpayable",
      "type": "function"
    },
    {
      "inputs": [
        {
          "internalType": "uint256",
          "name": "amount",
          "type": "uint256"
        }
      ],
      "name": "withdraw",
      "outputs": [],
      "stateMutability": "nonpayable",
      "type": "function"
    },
    {
      "inputs": [],
      "name": "getReward",
      "outputs": [],
      "stateMutability": "nonpayable",
      "type": "function"
    },
    {
      "inputs": [],
      "name": "exit",
      "outputs": [],
      "stateMutability": "nonpayable",
      "type": "function"
    },
    {
      "inputs": [
        {
          "internalType": "uint256",
          "name": "_reward",
          "type": "uint256"
        }
      ],
      "name": "notifyRewardAmount",
      "outputs": [],
      "stateMutability": "nonpayable",
      "type": "function"
    },
    {
      "inputs": [
        {
          "internalType": "uint256",
          "name": "_rewardsDuration",
          "type": "uint256"
        }
      ],
      "name": "setRewardsDuration",
      "outputs": [],
      "stateMutability": "nonpayable",
      "type": "function"
    },
    {
      "inputs": [],
      "name": "finishFarming",
      "outputs": [],
      "stateMutability": "nonpayable",
      "type": "function"
    }
  ],
  "bytecode": "0x6080604052600060065560006007556301e133806008553480156200002357600080fd5b5060405162002cb038038062002cb0833981810160405281019062000049919062000241565b83600073ffffffffffffffffffffffffffffffffffffffff168173ffffffffffffffffffffffffffffffffffffffff161415620000bd576040517f08c379a0000000000000000000000000000000000000000000000000000000008152600401620000b49062000312565b60405180910390fd5b806000806101000a81548173ffffffffffffffffffffffffffffffffffffffff021916908373ffffffffffffffffffffffffffffffffffffffff1602179055507fb532073b38c83145e3e5135377a08bf9aab55bc0fd7c1179cd4fb995d2a5159c60008260405162000131929190620002e5565b60405180910390a15060016003819055506000600460006101000a81548160ff02191690831515021790555081600560006101000a81548173ffffffffffffffffffffffffffffffffffffffff021916908373ffffffffffffffffffffffffffffffffffffffff16021790555080600460016101000a81548173ffffffffffffffffffffffffffffffffffffffff021916908373ffffffffffffffffffffffffffffffffffffffff16021790555082600260006101000a81548173ffffffffffffffffffffffffffffffffffffffff021916908373ffffffffffffffffffffffffffffffffffffffff16021790555050505050620003bc565b6000815190506200023b81620003a2565b92915050565b600080600080608085870312156200025857600080fd5b600062000268878288016200022a565b94505060206200027b878288016200022a565b93505060406200028e878288016200022a565b9250506060620002a1878288016200022a565b91505092959194509250565b620002b88162000345565b82525050565b6000620002cd60198362000334565b9150620002da8262000379565b602082019050919050565b6000604082019050620002fc6000830185620002ad565b6200030b6020830184620002ad565b9392505050565b600060208201905081810360008301526200032d81620002be565b9050919050565b600082825260208201905092915050565b6000620003528262000359565b9050919050565b600073ffffffffffffffffffffffffffffffffffffffff82169050919050565b7f4f776e657220616464726573732063616e6e6f74206265203000000000000000600082015250565b620003ad8162000345565b8114620003b957600080fd5b50565b6128e480620003cc6000396000f3fe608060405234801561001057600080fd5b50600436106101d95760003560e01c806372f702f311610104578063a694fc3a116100a2578063d1af0c7d11610071578063d1af0c7d146104ea578063df136d6514610508578063e9fad8ee14610526578063ebe2b12b14610530576101d9565b8063a694fc3a14610476578063c8f33c9114610492578063cc1a378f146104b0578063cd3daf9d146104cc576101d9565b80637b0a47ee116100de5780637b0a47ee146103ec57806380faa57d1461040a5780638b876347146104285780638da5cb5b14610458576101d9565b806372f702f3146103a657806375f12b21146103c457806379ba5097146103e2576101d9565b80632e1a7d4d1161017c5780633fc6df6e1161014b5780633fc6df6e1461031c57806353a47bb71461033a5780635c975abb1461035857806370a0823114610376576101d9565b80632e1a7d4d146102bc578063386a9525146102d85780633c6b16ab146102f65780633d18b91214610312576101d9565b806318160ddd116101b857806318160ddd1461025a57806319762143146102785780631c1f78eb14610294578063207e11aa146102b2576101d9565b80628cc262146101de5780630700037d1461020e5780631627540c1461023e575b600080fd5b6101f860048036038101906101f39190611df6565b61054e565b6040516102059190612341565b60405180910390f35b61022860048036038101906102239190611df6565b61066c565b6040516102359190612341565b60405180910390f35b61025860048036038101906102539190611df6565b610684565b005b610262610707565b60405161026f9190612341565b60405180910390f35b610292600480360381019061028d9190611df6565b610711565b005b61029c61075d565b6040516102a99190612341565b60405180910390f35b6102ba61077b565b005b6102d660048036038101906102d19190611e48565b610a04565b005b6102e0610d33565b6040516102ed9190612341565b60405180910390f35b610310600480360381019061030b9190611e48565b610d39565b005b61031a6110ef565b005b6103246113be565b60405161033191906120ac565b60405180910390f35b6103426113e4565b60405161034f91906120ac565b60405180910390f35b61036061140a565b60405161036d9190612150565b60405180910390f35b610390600480360381019061038b9190611df6565b611421565b60405161039d9190612341565b60405180910390f35b6103ae61146a565b6040516103bb9190612186565b60405180910390f35b6103cc611490565b6040516103d99190612150565b60405180910390f35b6103ea6114a3565b005b6103f4611654565b6040516104019190612341565b60405180910390f35b61041261165a565b60405161041f9190612341565b60405180910390f35b610442600480360381019061043d9190611df6565b61166d565b60405161044f9190612341565b60405180910390f35b610460611685565b60405161046d91906120ac565b60405180910390f35b610490600480360381019061048b9190611e48565b6116a9565b005b61049a611a67565b6040516104a79190612341565b60405180910390f35b6104ca60048036038101906104c59190611e48565b611a6d565b005b6104d4611b8f565b6040516104e19190612341565b60405180910390f35b6104f2611c1d565b6040516104ff919061216b565b60405180910390f35b610510611c43565b60405161051d9190612341565b60405180910390f35b61052e611c49565b005b610538611c9b565b6040516105459190612341565b60405180910390f35b6000610665600c60008473ffffffffffffffffffffffffffffffffffffffff1673ffffffffffffffffffffffffffffffffffffffff16815260200190815260200160002054610657670de0b6b3a76400006106496105fb600b60008973ffffffffffffffffffffffffffffffffffffffff1673ffffffffffffffffffffffffffffffffffffffff168152602001908152602001600020546105ed611b8f565b611ca190919063ffffffff16565b600f60008973ffffffffffffffffffffffffffffffffffffffff1673ffffffffffffffffffffffffffffffffffffffff16815260200190815260200160002054611cb790919063ffffffff16565b611ccd90919063ffffffff16565b611ce390919063ffffffff16565b9050919050565b600c6020528060005260406000206000915090505481565b61068c611cf9565b80600160006101000a81548173ffffffffffffffffffffffffffffffffffffffff021916908373ffffffffffffffffffffffffffffffffffffffff1602179055507f906a1c6bd7e3091ea86693dd029a831c19049ce77f1dce2ce0bab1cacbabce22816040516106fc91906120ac565b60405180910390a150565b6000600e54905090565b610719611cf9565b80600260006101000a81548173ffffffffffffffffffffffffffffffffffffffff021916908373ffffffffffffffffffffffffffffffffffffffff16021790555050565b6000610776600854600754611cb790919063ffffffff16565b905090565b600d60009054906101000a900460ff16156107cb576040517f08c379a00000000000000000000000000000000000000000000000000000000081526004016107c2906122c1565b60405180910390fd5b6107d3611cf9565b6006544210610817576040517f08c379a000000000000000000000000000000000000000000000000000000000815260040161080e906122e1565b60405180910390fd5b6001600d60006101000a81548160ff021916908315150217905550600080600e5414156108f057600460019054906101000a900473ffffffffffffffffffffffffffffffffffffffff1673ffffffffffffffffffffffffffffffffffffffff166370a08231306040518263ffffffff1660e01b815260040161089991906120ac565b60206040518083038186803b1580156108b157600080fd5b505afa1580156108c5573d6000803e3d6000fd5b505050506040513d601f19601f820116820180604052508101906108e99190611e71565b9050610936565b600061090742600654611ca190919063ffffffff16565b905061091e81600754611cb790919063ffffffff16565b91508060085461092e919061244e565b600881905550505b42600681905550600460019054906101000a900473ffffffffffffffffffffffffffffffffffffffff1673ffffffffffffffffffffffffffffffffffffffff166342966c68826040518263ffffffff1660e01b81526004016109989190612341565b600060405180830381600087803b1580156109b257600080fd5b505af11580156109c6573d6000803e3d6000fd5b505050507f25855e069bda50ae3b153c3c24046d2bb7fb02b2be4a54f2a598c8b219b90133816040516109f99190612341565b60405180910390a150565b60026003541415610a4a576040517f08c379a0000000000000000000000000000000000000000000000000000000008152600401610a4190612321565b60405180910390fd5b600260038190555033610a5b611b8f565b600a81905550610a6961165a565b600981905550600073ffffffffffffffffffffffffffffffffffffffff168173ffffffffffffffffffffffffffffffffffffffff1614610b3657610aac8161054e565b600c60008373ffffffffffffffffffffffffffffffffffffffff1673ffffffffffffffffffffffffffffffffffffffff16815260200190815260200160002081905550600a54600b60008373ffffffffffffffffffffffffffffffffffffffff1673ffffffffffffffffffffffffffffffffffffffff168152602001908152602001600020819055505b60008211610b79576040517f08c379a0000000000000000000000000000000000000000000000000000000008152600401610b7090612281565b60405180910390fd5b610b8e82600e54611ca190919063ffffffff16565b600e81905550610be682600f60003373ffffffffffffffffffffffffffffffffffffffff1673ffffffffffffffffffffffffffffffffffffffff16815260200190815260200160002054611ca190919063ffffffff16565b600f60003373ffffffffffffffffffffffffffffffffffffffff1673ffffffffffffffffffffffffffffffffffffffff16815260200190815260200160002081905550600560009054906101000a900473ffffffffffffffffffffffffffffffffffffffff1673ffffffffffffffffffffffffffffffffffffffff1663a9059cbb33846040518363ffffffff1660e01b8152600401610c86929190612127565b602060405180830381600087803b158015610ca057600080fd5b505af1158015610cb4573d6000803e3d6000fd5b505050506040513d601f19601f82011682018060405250810190610cd89190611e1f565b503373ffffffffffffffffffffffffffffffffffffffff167f7084f5476618d8e60b11ef0d7d3f06914655adb8793e28ff7f018d4c76d505d583604051610d1f9190612341565b60405180910390a250600160038190555050565b60085481565b600d60009054906101000a900460ff1615610d89576040517f08c379a0000000000000000000000000000000000000000000000000000000008152600401610d80906122c1565b60405180910390fd5b600260009054906101000a900473ffffffffffffffffffffffffffffffffffffffff1673ffffffffffffffffffffffffffffffffffffffff163373ffffffffffffffffffffffffffffffffffffffff1614610e19576040517f08c379a0000000000000000000000000000000000000000000000000000000008152600401610e1090612301565b60405180910390fd5b6000610e23611b8f565b600a81905550610e3161165a565b600981905550600073ffffffffffffffffffffffffffffffffffffffff168173ffffffffffffffffffffffffffffffffffffffff1614610efe57610e748161054e565b600c60008373ffffffffffffffffffffffffffffffffffffffff1673ffffffffffffffffffffffffffffffffffffffff16815260200190815260200160002081905550600a54600b60008373ffffffffffffffffffffffffffffffffffffffff1673ffffffffffffffffffffffffffffffffffffffff168152602001908152602001600020819055505b6006544210610f2757610f1c60085483611ccd90919063ffffffff16565b600781905550610f89565b6000610f3e42600654611ca190919063ffffffff16565b90506000610f5760075483611cb790919063ffffffff16565b9050610f80600854610f728387611ce390919063ffffffff16565b611ccd90919063ffffffff16565b60078190555050505b6000600460019054906101000a900473ffffffffffffffffffffffffffffffffffffffff1673ffffffffffffffffffffffffffffffffffffffff166370a08231306040518263ffffffff1660e01b8152600401610fe691906120ac565b60206040518083038186803b158015610ffe57600080fd5b505afa158015611012573d6000803e3d6000fd5b505050506040513d601f19601f820116820180604052508101906110369190611e71565b905061104d60085482611ccd90919063ffffffff16565b6007541115611091576040517f08c379a0000000000000000000000000000000000000000000000000000000008152600401611088906122a1565b60405180910390fd5b426009819055506110ad60085442611ce390919063ffffffff16565b6006819055507fde88a922e0d3b88b24e9623efeb464919c6bf9f66857a65e2bfcf2ce87a9433d836040516110e29190612341565b60405180910390a1505050565b60026003541415611135576040517f08c379a000000000000000000000000000000000000000000000000000000000815260040161112c90612321565b60405180910390fd5b600260038190555033611146611b8f565b600a8190555061115461165a565b600981905550600073ffffffffffffffffffffffffffffffffffffffff168173ffffffffffffffffffffffffffffffffffffffff1614611221576111978161054e565b600c60008373ffffffffffffffffffffffffffffffffffffffff1673ffffffffffffffffffffffffffffffffffffffff16815260200190815260200160002081905550600a54600b60008373ffffffffffffffffffffffffffffffffffffffff1673ffffffffffffffffffffffffffffffffffffffff168152602001908152602001600020819055505b6000600c60003373ffffffffffffffffffffffffffffffffffffffff1673ffffffffffffffffffffffffffffffffffffffff16815260200190815260200160002054905060008111156113b2576000600c60003373ffffffffffffffffffffffffffffffffffffffff1673ffffffffffffffffffffffffffffffffffffffff16815260200190815260200160002081905550600460019054906101000a900473ffffffffffffffffffffffffffffffffffffffff1673ffffffffffffffffffffffffffffffffffffffff1663a9059cbb33836040518363ffffffff1660e01b8152600401611310929190612127565b602060405180830381600087803b15801561132a57600080fd5b505af115801561133e573d6000803e3d6000fd5b505050506040513d601f19601f820116820180604052508101906113629190611e1f565b503373ffffffffffffffffffffffffffffffffffffffff167fe2403640ba68fed3a2f88b7557551d1993f84b99bb10ff833f0cf8db0c5e0486826040516113a99190612341565b60405180910390a25b50506001600381905550565b600260009054906101000a900473ffffffffffffffffffffffffffffffffffffffff1681565b600160009054906101000a900473ffffffffffffffffffffffffffffffffffffffff1681565b6000600460009054906101000a900460ff16905090565b6000600f60008373ffffffffffffffffffffffffffffffffffffffff1673ffffffffffffffffffffffffffffffffffffffff168152602001908152602001600020549050919050565b600560009054906101000a900473ffffffffffffffffffffffffffffffffffffffff1681565b600d60009054906101000a900460ff1681565b600160009054906101000a900473ffffffffffffffffffffffffffffffffffffffff1673ffffffffffffffffffffffffffffffffffffffff163373ffffffffffffffffffffffffffffffffffffffff1614611533576040517f08c379a000000000000000000000000000000000000000000000000000000000815260040161152a906121c1565b60405180910390fd5b7fb532073b38c83145e3e5135377a08bf9aab55bc0fd7c1179cd4fb995d2a5159c60008054906101000a900473ffffffffffffffffffffffffffffffffffffffff16600160009054906101000a900473ffffffffffffffffffffffffffffffffffffffff166040516115a69291906120c7565b60405180910390a1600160009054906101000a900473ffffffffffffffffffffffffffffffffffffffff166000806101000a81548173ffffffffffffffffffffffffffffffffffffffff021916908373ffffffffffffffffffffffffffffffffffffffff1602179055506000600160006101000a81548173ffffffffffffffffffffffffffffffffffffffff021916908373ffffffffffffffffffffffffffffffffffffffff160217905550565b60075481565b600061166842600654611d89565b905090565b600b6020528060005260406000206000915090505481565b60008054906101000a900473ffffffffffffffffffffffffffffffffffffffff1681565b600260035414156116ef576040517f08c379a00000000000000000000000000000000000000000000000000000000081526004016116e690612321565b60405180910390fd5b60026003819055506116ff61140a565b1561173f576040517f08c379a000000000000000000000000000000000000000000000000000000000815260040161173690612241565b60405180910390fd5b33611748611b8f565b600a8190555061175661165a565b600981905550600073ffffffffffffffffffffffffffffffffffffffff168173ffffffffffffffffffffffffffffffffffffffff1614611823576117998161054e565b600c60008373ffffffffffffffffffffffffffffffffffffffff1673ffffffffffffffffffffffffffffffffffffffff16815260200190815260200160002081905550600a54600b60008373ffffffffffffffffffffffffffffffffffffffff1673ffffffffffffffffffffffffffffffffffffffff168152602001908152602001600020819055505b600060065411611868576040517f08c379a000000000000000000000000000000000000000000000000000000000815260040161185f90612221565b60405180910390fd5b600082116118ab576040517f08c379a00000000000000000000000000000000000000000000000000000000081526004016118a2906121e1565b60405180910390fd5b6118c082600e54611ce390919063ffffffff16565b600e8190555061191882600f60003373ffffffffffffffffffffffffffffffffffffffff1673ffffffffffffffffffffffffffffffffffffffff16815260200190815260200160002054611ce390919063ffffffff16565b600f60003373ffffffffffffffffffffffffffffffffffffffff1673ffffffffffffffffffffffffffffffffffffffff16815260200190815260200160002081905550600560009054906101000a900473ffffffffffffffffffffffffffffffffffffffff1673ffffffffffffffffffffffffffffffffffffffff166323b872dd3330856040518463ffffffff1660e01b81526004016119ba939291906120f0565b602060405180830381600087803b1580156119d457600080fd5b505af11580156119e8573d6000803e3d6000fd5b505050506040513d601f19601f82011682018060405250810190611a0c9190611e1f565b503373ffffffffffffffffffffffffffffffffffffffff167f9e71bc8eea02a63969f509818f2dafb9254532904319f9dbda79b67bd34a5f3d83604051611a539190612341565b60405180910390a250600160038190555050565b60095481565b600d60009054906101000a900460ff1615611abd576040517f08c379a0000000000000000000000000000000000000000000000000000000008152600401611ab4906122c1565b60405180910390fd5b611ac5611cf9565b60008111611b08576040517f08c379a0000000000000000000000000000000000000000000000000000000008152600401611aff90612201565b60405180910390fd5b6006544211611b4c576040517f08c379a0000000000000000000000000000000000000000000000000000000008152600401611b43906121a1565b60405180910390fd5b806008819055507ffb46ca5a5e06d4540d6387b930a7c978bce0db5f449ec6b3f5d07c6e1d44f2d3600854604051611b849190612341565b60405180910390a150565b600080600e541415611ba557600a549050611c1a565b611c17611c06600e54611bf8670de0b6b3a7640000611bea600754611bdc600954611bce61165a565b611ca190919063ffffffff16565b611cb790919063ffffffff16565b611cb790919063ffffffff16565b611ccd90919063ffffffff16565b600a54611ce390919063ffffffff16565b90505b90565b600460019054906101000a900473ffffffffffffffffffffffffffffffffffffffff1681565b600a5481565b611c91600f60003373ffffffffffffffffffffffffffffffffffffffff1673ffffffffffffffffffffffffffffffffffffffff16815260200190815260200160002054610a04565b611c996110ef565b565b60065481565b60008183611caf919061244e565b905092915050565b60008183611cc591906123f4565b905092915050565b60008183611cdb91906123c3565b905092915050565b60008183611cf1919061236d565b905092915050565b60008054906101000a900473ffffffffffffffffffffffffffffffffffffffff1673ffffffffffffffffffffffffffffffffffffffff163373ffffffffffffffffffffffffffffffffffffffff1614611d87576040517f08c379a0000000000000000000000000000000000000000000000000000000008152600401611d7e90612261565b60405180910390fd5b565b6000818310611d985781611d9a565b825b905092915050565b600081359050611db181612869565b92915050565b600081519050611dc681612880565b92915050565b600081359050611ddb81612897565b92915050565b600081519050611df081612897565b92915050565b600060208284031215611e0857600080fd5b6000611e1684828501611da2565b91505092915050565b600060208284031215611e3157600080fd5b6000611e3f84828501611db7565b91505092915050565b600060208284031215611e5a57600080fd5b6000611e6884828501611dcc565b91505092915050565b600060208284031215611e8357600080fd5b6000611e9184828501611de1565b91505092915050565b611ea381612482565b82525050565b611eb281612494565b82525050565b611ec1816124ca565b82525050565b611ed0816124ee565b82525050565b6000611ee360588361235c565b9150611eee82612570565b606082019050919050565b6000611f0660358361235c565b9150611f11826125e5565b604082019050919050565b6000611f29600e8361235c565b9150611f3482612634565b602082019050919050565b6000611f4c60168361235c565b9150611f578261265d565b602082019050919050565b6000611f6f601c8361235c565b9150611f7a82612686565b602082019050919050565b6000611f9260108361235c565b9150611f9d826126af565b602082019050919050565b6000611fb5602f8361235c565b9150611fc0826126d8565b604082019050919050565b6000611fd860118361235c565b9150611fe382612727565b602082019050919050565b6000611ffb60188361235c565b915061200682612750565b602082019050919050565b600061201e60128361235c565b915061202982612779565b602082019050919050565b6000612041602d8361235c565b915061204c826127a2565b604082019050919050565b6000612064602a8361235c565b915061206f826127f1565b604082019050919050565b6000612087601f8361235c565b915061209282612840565b602082019050919050565b6120a6816124c0565b82525050565b60006020820190506120c16000830184611e9a565b92915050565b60006040820190506120dc6000830185611e9a565b6120e96020830184611e9a565b9392505050565b60006060820190506121056000830186611e9a565b6121126020830185611e9a565b61211f604083018461209d565b949350505050565b600060408201905061213c6000830185611e9a565b612149602083018461209d565b9392505050565b60006020820190506121656000830184611ea9565b92915050565b60006020820190506121806000830184611eb8565b92915050565b600060208201905061219b6000830184611ec7565b92915050565b600060208201905081810360008301526121ba81611ed6565b9050919050565b600060208201905081810360008301526121da81611ef9565b9050919050565b600060208201905081810360008301526121fa81611f1c565b9050919050565b6000602082019050818103600083015261221a81611f3f565b9050919050565b6000602082019050818103600083015261223a81611f62565b9050919050565b6000602082019050818103600083015261225a81611f85565b9050919050565b6000602082019050818103600083015261227a81611fa8565b9050919050565b6000602082019050818103600083015261229a81611fcb565b9050919050565b600060208201905081810360008301526122ba81611fee565b9050919050565b600060208201905081810360008301526122da81612011565b9050919050565b600060208201905081810360008301526122fa81612034565b9050919050565b6000602082019050818103600083015261231a81612057565b9050919050565b6000602082019050818103600083015261233a8161207a565b9050919050565b6000602082019050612356600083018461209d565b92915050565b600082825260208201905092915050565b6000612378826124c0565b9150612383836124c0565b9250827fffffffffffffffffffffffffffffffffffffffffffffffffffffffffffffffff038211156123b8576123b7612512565b5b828201905092915050565b60006123ce826124c0565b91506123d9836124c0565b9250826123e9576123e8612541565b5b828204905092915050565b60006123ff826124c0565b915061240a836124c0565b9250817fffffffffffffffffffffffffffffffffffffffffffffffffffffffffffffffff048311821515161561244357612442612512565b5b828202905092915050565b6000612459826124c0565b9150612464836124c0565b92508282101561247757612476612512565b5b828203905092915050565b600061248d826124a0565b9050919050565b60008115159050919050565b600073ffffffffffffffffffffffffffffffffffffffff82169050919050565b6000819050919050565b60006124d5826124dc565b9050919050565b60006124e7826124a0565b9050919050565b60006124f982612500565b9050919050565b600061250b826124a0565b9050919050565b7f4e487b7100000000000000000000000000000000000000000000000000000000600052601160045260246000fd5b7f4e487b7100000000000000000000000000000000000000000000000000000000600052601260045260246000fd5b7f50726576696f7573207265776172647320706572696f64206d7573742062652060008201527f636f6d706c657465206265666f7265206368616e67696e67207468652064757260208201527f6174696f6e20666f7220746865206e657720706572696f640000000000000000604082015250565b7f596f75206d757374206265206e6f6d696e61746564206265666f726520796f7560008201527f2063616e20616363657074206f776e6572736869700000000000000000000000602082015250565b7f43616e6e6f74207374616b652030000000000000000000000000000000000000600082015250565b7f656d707479205f726577617264734475726174696f6e00000000000000000000600082015250565b7f5374616b6520706572696f64206e6f7420737461727465642079657400000000600082015250565b7f5061757361626c653a2070617573656400000000000000000000000000000000600082015250565b7f4f6e6c792074686520636f6e7472616374206f776e6572206d6179207065726660008201527f6f726d207468697320616374696f6e0000000000000000000000000000000000602082015250565b7f43616e6e6f742077697468647261772030000000000000000000000000000000600082015250565b7f50726f76696465642072657761726420746f6f20686967680000000000000000600082015250565b7f6661726d696e672069732073746f707065640000000000000000000000000000600082015250565b7f63616e27742073746f70206966206e6f742073746172746564206f7220616c7260008201527f656164792066696e697368656400000000000000000000000000000000000000602082015250565b7f43616c6c6572206973206e6f742052657761726473446973747269627574696f60008201527f6e20636f6e747261637400000000000000000000000000000000000000000000602082015250565b7f5265656e7472616e637947756172643a207265656e7472616e742063616c6c00600082015250565b61287281612482565b811461287d57600080fd5b50565b61288981612494565b811461289457600080fd5b50565b6128a0816124c0565b81146128ab57600080fd5b5056fea2646970667358221220fcd1c77ad415696a60325015a9b10ad554868d0e77cd0c50dd3ed5ededbd617864736f6c63430008030033",
  "immutableReferences": {},
  "source": "// SPDX-License-Identifier: MIT\r\npragma solidity ^0.8.0;\r\n\r\nimport \"../node_modules/@openzeppelin/contracts/utils/math/Math.sol\";\r\nimport \"../node_modules/@openzeppelin/contracts/utils/math/SafeMath.sol\";\r\nimport \"../node_modules/@openzeppelin/contracts/token/ERC20/ERC20.sol\";\r\nimport \"../node_modules/@openzeppelin/contracts/security/ReentrancyGuard.sol\";\r\nimport \"../node_modules/@openzeppelin/contracts/security/Pausable.sol\";\r\nimport \"../node_modules/@openzeppelin/contracts/token/ERC20/extensions/ERC20Burnable.sol\";\r\n\r\n// Inheritance\r\n// import \"./RewardsDistributionRecipient.sol\";\r\n// import \"./Pausable.sol\";\r\n\r\n/**\r\n * @dev Extension of {ERC20} that allows token holders to destroy both their own\r\n * tokens and those that they have an allowance for, in a way that can be\r\n * recognized off-chain (via event analysis).\r\n */\r\ninterface IERC20Burnable is IERC20 {\r\n    /**\r\n     * @dev Destroys `amount` tokens from the caller.\r\n     *\r\n     * See {ERC20-_burn}.\r\n     */\r\n    function burn(uint256 amount) external;\r\n\r\n    /**\r\n     * @dev Destroys `amount` tokens from `account`, deducting from the caller's\r\n     * allowance.\r\n     *\r\n     * See {ERC20-_burn} and {ERC20-allowance}.\r\n     *\r\n     * Requirements:\r\n     *\r\n     * - the caller must have allowance for ``accounts``'s tokens of at least\r\n     * `amount`.\r\n     */\r\n    function burnFrom(address account, uint256 amount) external;\r\n}\r\n\r\n\r\ncontract Owned {\r\n    address public owner;\r\n    address public nominatedOwner;\r\n\r\n    constructor(address _owner) public {\r\n        require(_owner != address(0), \"Owner address cannot be 0\");\r\n        owner = _owner;\r\n        emit OwnerChanged(address(0), _owner);\r\n    }\r\n\r\n    function nominateNewOwner(address _owner) external onlyOwner {\r\n        nominatedOwner = _owner;\r\n        emit OwnerNominated(_owner);\r\n    }\r\n\r\n    function acceptOwnership() external {\r\n        require(msg.sender == nominatedOwner, \"You must be nominated before you can accept ownership\");\r\n        emit OwnerChanged(owner, nominatedOwner);\r\n        owner = nominatedOwner;\r\n        nominatedOwner = address(0);\r\n    }\r\n\r\n    modifier onlyOwner {\r\n        _onlyOwner();\r\n        _;\r\n    }\r\n\r\n    function _onlyOwner() private view {\r\n        require(msg.sender == owner, \"Only the contract owner may perform this action\");\r\n    }\r\n\r\n    event OwnerNominated(address newOwner);\r\n    event OwnerChanged(address oldOwner, address newOwner);\r\n}\r\n\r\nabstract contract RewardsDistributionRecipient is Owned {\r\n    address public rewardsDistribution;\r\n\r\n    function notifyRewardAmount(uint256 reward) virtual external;\r\n\r\n    modifier onlyRewardsDistribution() {\r\n        require(msg.sender == rewardsDistribution, \"Caller is not RewardsDistribution contract\");\r\n        _;\r\n    }\r\n\r\n    function setRewardsDistribution(address _rewardsDistribution) external onlyOwner {\r\n        rewardsDistribution = _rewardsDistribution;\r\n    }\r\n}\r\n\r\ninterface IStakingRewards {\r\n    // Views\r\n    function lastTimeRewardApplicable() external view returns (uint256);\r\n\r\n    function rewardPerToken() external view returns (uint256);\r\n\r\n    function earned(address account) external view returns (uint256);\r\n\r\n    function getRewardForDuration() external view returns (uint256);\r\n\r\n    function totalSupply() external view returns (uint256);\r\n\r\n    function balanceOf(address account) external view returns (uint256);\r\n\r\n    // Mutative\r\n\r\n    function stake(uint256 amount) external;\r\n\r\n    function withdraw(uint256 amount) external;\r\n\r\n    function getReward() external;\r\n\r\n    function exit() external;\r\n}\r\n\r\n// based on synthetix\r\ncontract DaiPool is IStakingRewards, RewardsDistributionRecipient, ReentrancyGuard, Pausable {\r\n    using SafeMath for uint256;\r\n    // using ERC20Burnable for IERC20;\r\n    // using SafeERC20 for IERC20;\r\n\r\n    // ========== STATE VARIABLES ========== //\r\n\r\n    IERC20Burnable public rewardsToken; // the reward token\r\n    IERC20 public stakingToken; // the staking token\r\n    uint256 public periodFinish = 0; // when staking ends\r\n    uint256 public rewardRate = 0; // rewards per second distributed\r\n    uint256 public rewardsDuration = 365 days; // default lifetime of the staking contract\r\n    uint256 public lastUpdateTime; // last time rewards info has been updated\r\n    uint256 public rewardPerTokenStored;  // amount of rewards earned per token staked \r\n\r\n    mapping(address => uint256) public userRewardPerTokenPaid; // amount of rewards the user was paid for each of their tokens \r\n    mapping(address => uint256) public rewards; // amount of unclaimed rewards for each staker\r\n\r\n    bool public stopped;\r\n\r\n    uint256 private _totalSupply; // total amount of stakingToken \r\n    mapping(address => uint256) private _balances; // amount of stakingToken for each address\r\n\r\n    // ========== CONSTRUCTOR ========== //\r\n\r\n    constructor(\r\n        address _owner,\r\n        address _rewardsDistribution,\r\n        address _stakingToken,\r\n        address _rewardsToken\r\n    ) Owned(_owner) {\r\n        stakingToken = IERC20(_stakingToken);\r\n        rewardsToken = IERC20Burnable(_rewardsToken);\r\n        rewardsDistribution = _rewardsDistribution; // the wallet that provides the rewards \r\n    }\r\n\r\n    // ========== VIEWS ========== //\r\n\r\n    // returns total supply of staked tokens\r\n    function totalSupply() override public view returns (uint256) {\r\n        return _totalSupply;\r\n    }\r\n\r\n    // returns account's balance of staked tokens\r\n    function balanceOf(address account) override external view returns (uint256) {\r\n        return _balances[account];\r\n    }\r\n\r\n    // returns the last time that applies for distributing rewards\r\n    // the staking contract uses the current block time (block.timestamp) for calculating rewards, up until the duration of the staking contract has ended (periodFinish) \r\n    function lastTimeRewardApplicable() override public view returns (uint256) { \r\n        return Math.min(block.timestamp, periodFinish);\r\n    }\r\n\r\n    // returns the amount of rewards that will be distributed per token\r\n    function rewardPerToken() override public view returns (uint256) {\r\n        if (_totalSupply == 0) {\r\n            return rewardPerTokenStored;\r\n        }\r\n\r\n        // to get the current rewards per token, add the last rewards per token calculated at the lastUpdateTime (rewardsPerkTokenStored) and add the rewards per token for the time between lastUpdateTime and the current time (astTimeRewardApplicable()) \r\n        // lastTimeRewardApplicable().sub(lastUpdateTime) = time between lastUpdateTime and the current time (astTimeRewardApplicable())\r\n        // lastTimeRewardApplicable().sub(lastUpdateTime).mul(rewardRate) = rewards generated over this time period\r\n        // lastTimeRewardApplicable().sub(lastUpdateTime).mul(rewardRate).mul(1e18) = rewards generated over this time period to 18 decimals\r\n        // lastTimeRewardApplicable().sub(lastUpdateTime).mul(rewardRate).mul(1e18).div(_totalSupply) = rewards generated over this time period per token staked\r\n        return rewardPerTokenStored.add(\r\n            lastTimeRewardApplicable().sub(lastUpdateTime).mul(rewardRate).mul(1e18).div(_totalSupply)\r\n        );\r\n    }\r\n\r\n    // returns the amount of rewards earned by the account\r\n    // rewardPerToken().sub(userRewardPerTokenPaid[account]) gives you the new rate at which the account was earning rewards based on the last time the account was paid its rewards\r\n    function earned(address account) override virtual public view returns (uint256) {\r\n        return _balances[account]\r\n        .mul(rewardPerToken().sub(userRewardPerTokenPaid[account]))\r\n        .div(1e18)\r\n        .add(rewards[account]);\r\n    }\r\n\r\n    // returns the amount of rewards being distributed over the rewardsDuration\r\n    function getRewardForDuration() override external view returns (uint256) {\r\n        return rewardRate.mul(rewardsDuration);\r\n    }\r\n\r\n    // ========== MUTATIVE FUNCTIONS ========== //\r\n\r\n    // allows a user to stake some amount of tokens for rewards\r\n    // crucially updates the rewards data before processing the staking operation\r\n    // nonReentrant prevents this function from being called again in the same transaction. This stops malicious and/or untrusted actors or buggy code from manipulating the contract's invariants\r\n    function stake(uint256 amount) override external nonReentrant whenNotPaused updateReward(msg.sender) {\r\n        require(periodFinish > 0, \"Stake period not started yet\");\r\n        require(amount > 0, \"Cannot stake 0\");\r\n\r\n        _totalSupply = _totalSupply.add(amount);\r\n        _balances[msg.sender] = _balances[msg.sender].add(amount);\r\n\r\n        stakingToken.transferFrom(msg.sender, address(this), amount);\r\n\r\n        emit Staked(msg.sender, amount);\r\n    }\r\n\r\n    // allows a user to withdraw some amount of their staked tokens \r\n    // crucially updates the rewards data before processing the withdraw operation\r\n    // nonReentrant prevents this function from being called again in the same transaction. This stops malicious and/or untrusted actors or buggy code from manipulating the contract's invariants\r\n    function withdraw(uint256 amount) override public nonReentrant updateReward(msg.sender) {\r\n        require(amount > 0, \"Cannot withdraw 0\");\r\n        _totalSupply = _totalSupply.sub(amount);\r\n        _balances[msg.sender] = _balances[msg.sender].sub(amount);\r\n        stakingToken.transfer(msg.sender, amount);\r\n\r\n        emit Withdrawn(msg.sender, amount);\r\n    }\r\n\r\n    // allows a user to claim their rewards\r\n    // crucially updates the rewards data before processing the getReward operation\r\n    // nonReentrant prevents this function from being called again in the same transaction. This stops malicious and/or untrusted actors or buggy code from manipulating the contract's invariants\r\n    function getReward() override public nonReentrant updateReward(msg.sender) {\r\n        uint256 reward = rewards[msg.sender];\r\n\r\n        if (reward > 0) {\r\n            rewards[msg.sender] = 0;\r\n            rewardsToken.transfer(msg.sender, reward);\r\n            emit RewardPaid(msg.sender, reward);\r\n        }\r\n    }\r\n\r\n    // allows the user to withdraw their staked tokens and claim their rewards in the same transaction\r\n    function exit() override external {\r\n        withdraw(_balances[msg.sender]); // withdraws the sender's balance\r\n        getReward(); // pays the sender their staking reward\r\n    }\r\n\r\n    // ========== RESTRICTED FUNCTIONS ========== //\r\n\r\n    // Add rewards to the contract for distribution\r\n    function notifyRewardAmount(\r\n        uint256 _reward\r\n    ) override virtual external whenActive onlyRewardsDistribution updateReward(address(0)) {\r\n        if (block.timestamp >= periodFinish) {\r\n            rewardRate = _reward.div(rewardsDuration);\r\n        } else {\r\n            uint256 remaining = periodFinish.sub(block.timestamp);\r\n            uint256 leftover = remaining.mul(rewardRate);\r\n            rewardRate = _reward.add(leftover).div(rewardsDuration);\r\n        }\r\n\r\n        // Ensure the provided reward amount is not more than the balance in the contract.\r\n        // This keeps the reward rate in the right range, preventing overflows due to\r\n        // very high values of rewardRate in the earned and rewardsPerToken functions;\r\n        // Reward + leftover must be less than 2^256 / 10^18 to avoid overflow.\r\n        uint256 balance = rewardsToken.balanceOf(address(this));\r\n        require(rewardRate <= balance.div(rewardsDuration), \"Provided reward too high\");\r\n\r\n        lastUpdateTime = block.timestamp;\r\n        periodFinish = block.timestamp.add(rewardsDuration); // lifetime doesn't start until rewards are added\r\n        emit RewardAdded(_reward);\r\n    }\r\n\r\n    // sets the reward duration\r\n    function setRewardsDuration(uint256 _rewardsDuration) virtual external whenActive onlyOwner {\r\n        require(_rewardsDuration > 0, \"empty _rewardsDuration\");\r\n\r\n        require(\r\n            block.timestamp > periodFinish,\r\n            \"Previous rewards period must be complete before changing the duration for the new period\"\r\n        );\r\n\r\n        rewardsDuration = _rewardsDuration;\r\n        emit RewardsDurationUpdated(rewardsDuration);\r\n    }\r\n\r\n    // when farming was started with 1y and 12tokens\r\n    // and we want to finish after 4 months, we need to end up with situation\r\n    // like we were starting with 4mo and 4 tokens.\r\n    // there is usually an agreement that a specific number or percentage of tokens will be allocated for speicifc purposes\r\n    function finishFarming() external whenActive onlyOwner {\r\n        require(block.timestamp < periodFinish, \"can't stop if not started or already finished\");\r\n\r\n        stopped = true;\r\n        uint256 tokensToBurn;\r\n\r\n        if (_totalSupply == 0) {\r\n            tokensToBurn = rewardsToken.balanceOf(address(this));\r\n        } else {\r\n            uint256 remaining = periodFinish.sub(block.timestamp);\r\n            tokensToBurn = rewardRate.mul(remaining);\r\n            rewardsDuration = rewardsDuration - remaining;\r\n        }\r\n\r\n        periodFinish = block.timestamp;\r\n        // IBurnableToken(address(rewardsToken)).burn(tokensToBurn);\r\n        rewardsToken.burn(tokensToBurn);\r\n\r\n        emit FarmingFinished(tokensToBurn);\r\n    }\r\n\r\n    // ========== MODIFIERS ========== //\r\n\r\n    // modifies a function such that it cannot be called unless it is active\r\n    modifier whenActive() {\r\n        require(!stopped, \"farming is stopped\");\r\n        _;\r\n    }\r\n\r\n    // updates the reward info\r\n    // updates rewardPerTokenStored, which changes based on lastTimeRewardApplicable().sub(lastUpdateTime).mul(rewardRate).mul(1e18).div(_totalSupply)\r\n    // updates lastUpdateTime to the current time or periodFinish\r\n    // updates the user's rewards and the reward the user was last paid on their staked tokens\r\n    modifier updateReward(address account) virtual {\r\n        rewardPerTokenStored = rewardPerToken();\r\n        lastUpdateTime = lastTimeRewardApplicable();\r\n        if (account != address(0)) {\r\n            rewards[account] = earned(account);\r\n            userRewardPerTokenPaid[account] = rewardPerTokenStored;\r\n        }\r\n        _;\r\n    }\r\n\r\n    // ========== EVENTS ========== //\r\n\r\n    event RewardAdded(uint256 reward);\r\n    event Staked(address indexed user, uint256 amount);\r\n    event Withdrawn(address indexed user, uint256 amount);\r\n    event RewardPaid(address indexed user, uint256 reward);\r\n    event RewardsDurationUpdated(uint256 newDuration);\r\n    event FarmingFinished(uint256 burnedTokens);\r\n}",
  "sourcePath": "/mnt/c/Users/n-bar/Desktop/Code/udacity/blockchain/grt-smart-contract-challenge/contracts/DaiPool.sol",
  "compiler": {
    "name": "solc",
    "version": "0.8.3+commit.8d00100c.Emscripten.clang"
  },
  "schemaVersion": "3.3.4",
  "updatedAt": "2021-04-04T19:36:50.810Z",
  "devdoc": {
    "kind": "dev",
    "methods": {
      "paused()": {
        "details": "Returns true if the contract is paused, and false otherwise."
      }
    },
    "version": 1
  },
  "userdoc": {
    "kind": "user",
    "methods": {},
    "version": 1
  }
}